:10000000F8FF002011040000D7880000D788000006
:10001000D7880000D7880000D7880000D788000064
:10002000D7880000D7880000D7880000D788000054
:10003000D7880000D7880000D7880000D788000044
:10004000D7880000D7880000D7880000D788000034
:10040000FFFFFFFFFFFFFFFFFFFFFFFFFEFFFFFFFD
:1004100062B60DF00FFEFEE7F8B5040000250026D9
:100420000020DFF8A01A08700027DFF844060078E3
:10043000401CDFF83C1608700020DFF83816087002
:1004400064B2012C40F0BD80DFF81806DFF82816F2
:10045000097810F81100DFF80C16DFF82026127862
:1004600011F812100818022190FBF1F005009D20F0
:10047000060000200700FFB2DFF8E805DFF8F815F6
:10048000097810F81100D0F13B0087422DDADFF82F
:10049000D405FFB210F81700DFF8CC15DFF8242AD6
:1004A000127801F81200DFF8BC05FFB210EB47002C
:1004B0004078DFF8B815FFB211EB4701497851FADF
:1004C00080F0022190FBF1F0DFF89C15DFF8F429B1
:1004D000127811EB42014870DFF8E8090078401CFF
:1004E000DFF8E01908707F1CC5E7DFF8D80900784D
:1004F000002860D13B20DFF87015DFF8C82912789A
:1005000001F81200DFF86405FFB210EB47004078F5
:10051000DFF8F8180978022291FBF2F151FA80F025
:100520000F30502809DA5020DFF83C15DFF8942905
:10053000127811EB4201487015E0DFF83005FFB288
:1005400010EB47004078DFF8C4180978022291FBCD
:10055000F2F108180F30DFF81015DFF8682912786B
:1005600011EB42014870DFF80405FFB210EB4700C1
:100570004078DFF898180978022291FBF2F151FADD
:1005800080F00F309E2808DB9D20DFF8DC14DFF8B8
:100590003429127811EB42014870DFF828090078FD
:1005A000401CDFF820190870F6B23100EDB22800C7
:1005B00002F092FED6E0F6B23100EDB2280002F071
:1005C0008BFE64B2022C40F0CD80DFF8A004DFF88F
:1005D0004018097810F81100DFF89014DFF8DC28D3
:1005E000127811F812100818022190FBF1F00500A2
:1005F00002200600DFF8C808DFF87014DFF8BC2816
:10060000127811F81210A02202FB01001F21C17004
:100610000020DFF8B018087000200700FFB2DFF8F4
:100620004C04DFF8EC17097810F81100D0F13B000A
:1006300087422DDADFF83404FFB210F81700DFF834
:100640002814DFF88028127801F81200DFF814046B
:10065000FFB210EB47004078DFF81014FFB211EB47
:100660004701497851FA80F0022190FBF1F0DFF860
:10067000F813DFF85028127811EB42014870DFF8C8
:1006800044080078401CDFF83C1808707F1CC5E760
:10069000DFF83008007800285ED13B20DFF8C8136F
:1006A000DFF82028127801F81200DFF8B803FFB253
:1006B00010EB47004078DFF854170978022291FBCD
:1006C000F2F1401A0F38512809DB5020DFF8981357
:1006D000DFF8F027127811EB4201487015E0DFF8DF
:1006E0008403FFB210EB47004078DFF82017097849
:1006F000022291FBF2F1401A0F38DFF86C13DFF899
:10070000C427127811EB42014870DFF85803FFB29A
:1007100010EB47004078DFF8F4160978022291FBCD
:10072000F2F1401A0F38022808DA0220DFF83813F5
:10073000DFF89027127811EB42014870DFF8840748
:100740000078401CDFF87C170870F6B23100EDB27B
:10075000280002F0C1FD05E0F6B23100EDB228003C
:1007600002F0BAFDF1BD70B50024DFF85C07006847
:10077000DFF8581705F090FD37D2DFF8540700680E
:10078000DFF8481705F088FD2FD2DFF8480700781A
:1007900000282AD1DFF840070078002825D1DFF8AB
:1007A0003C070078002820D1DFF83407007839288A
:1007B0001BDADFF82C070078282816DB0025002636
:1007C000DFF8A402DFF84016097810EB410010F8BA
:1007D000030C503805F072FD0A2806DA01200400E7
:1007E0007FF01300DFF8FC160860DFF8FC060068F5
:1007F000B0F57A7F2FDADFF8F0060068B0F5C87F31
:1008000029DDDFF8E8060078002824D164B2012C45
:1008100021D1DFF85402DFF8C816097810EB410047
:1008200010F8070C5F2813DADFF83C02DFF8B01687
:10083000097810EB410010F8070C422808DB012072
:10084000DFF8AC1608700120DFF8F418087004E037
:100850000020040001E00020040070BD80B5DFF836
:1008600088060068C82807DA0120DFF8D818086071
:100870000020DFF8D4180870DFF8D00800780028CE
:1008800028D1DFF8CC08007800280DD10020DFF84F
:10089000C418096808600020DFF8B8180968886083
:1008A0000120DFF8AC1808707FF04F00DFF8A818BF
:1008B0000870DFF8A00800680068DFF8A01805F0ED
:1008C00001FD07D80120DFF8841808700020DFF848
:1008D00080180870DFF874080078012827D1DFF845
:1008E0007008007800280DD10020DFF8681809682A
:1008F00008600020DFF85C18096888600120DFF8D4
:10090000501808700020DFF850180870DFF844080D
:1009100000680068DFF8481805F0D4FC07D802200A
:10092000DFF8281808700020DFF824180870DFF8B6
:100930001C080078022827D1DFF814080078002866
:100940000DD10020DFF80C18096808600020DFF8DE
:100950000418096888600120DFF8F4170870502037
:10096000DFF8F4170870DFF8EC0700680068DFF8BC
:10097000F01705F0A7FC07D80320DFF8D0170870A0
:100980000020DFF8CC170870DFF8C00700780328D4
:1009900066D10020DFF8C01708703248407833492C
:1009A0004978401A512847DB2E4840789D2843D18A
:1009B000DFF80C052B494978081842F2DF41085C42
:1009C000642839DBDFF8F80426494978081842F230
:1009D000DE41085C64282FDBDFF8E4042149497814
:1009E000081842F2DD41085C642825DBDFF8D004FA
:1009F0001E494978081842F2E141085C64281BDB73
:100A0000DFF8BC0419494978081842F2E241085C51
:100A1000642811DBDFF8A80414494978081842F269
:100A2000E341085C642807DB0020DFF81417087036
:100A30000020DFF81C170870DFF8980400780528FC
:100A40000EDB0848407809494978401A422807DBFC
:100A50000020DFF8EC1608700020DFF8F4160870AC
:100A600001BD00002010FF1FB011FF1FE810FF1F85
:100A7000E54FFF1F7304FF1F7604FF1F7704FF1F5E
:100A80002DE9F84300273B20C0B232282ADB0021A1
:100A900088460A21C9B2952918DADFF82424C0B2A1
:100AA000A02303FB0022C9B28A5C652A0CDBDFF8B5
:100AB0001024C0B2A02303FB0022C9B28A185278C6
:100AC000642A01DA18F10108491CE3E75FFA88F8A3
:100AD000B8F1060F04DB0120DFF8AC17087001E065
:100AE000401ED1E7DFF8A407007D0600DFF89C0771
:100AF000407D0500DFF89807407D04000020804617
:100B0000EDB29D2D34D0E4B2022C31D0DFF878075D
:100B1000007800282CD1A1465FFA89F9EDB2A945E9
:100B20001DD2DFF89C03F6B2A02101FB06005FFA9C
:100B300089F919F8000065280EDBDFF88403F6B2A6
:100B4000A02101FB06005FFA89F919EB000040784B
:100B5000642801DA18F1010819F10109DCE75FFAEC
:100B600088F8B8F1050F03DB0120DFF81C170870C7
:100B7000DFF81807807F0600DFF81007C07F050048
:100B8000DFF80C07C07F040000208046EDB29D2DE9
:100B900032D0E4B2022C2FD0DFF8EC060078002827
:100BA0002AD1A1465FFA89F9EDB2A9451BD2C44802
:100BB000F6B2A02101FB06005FFA89F919F80000DE
:100BC00065280DDBBE48F6B2A02101FB06005FFAE6
:100BD00089F919EB00004078642801DA18F101085E
:100BE00019F10109DEE75FFA88F8B8F1050F03DBB8
:100BF0000120DFF894160870DFF890064078DFF8DF
:100C000090164978401A0F283EDADFF87C06007803
:100C1000002839D1DFF87C060078022834D1DFF8CB
:100C20007806007801282FD1DFF870060078DFF809
:100C300070160978401A05F041FB052824DA0020D7
:100C4000DFF858160978DFF858261278914204D256
:100C5000DFF84C160978080003E0DFF84016097841
:100C60000800DFF82816C0B211EB4001C978DFF8A0
:100C70002026C0B212EB4002D278891A652903DB24
:100C80000121DFF804261170DFF800064079DFF853
:100C900000164979401A0F283EDADFF8EC05007893
:100CA000002839D1DFF8EC050078022834D1DFF8CC
:100CB000E805007801282FD1DFF8E0050078DFF89B
:100CC000E0150978401A05F0F9FA052824DA002021
:100CD000DFF8C8150978DFF8C8251278914204D2E8
:100CE000DFF8BC150978080003E0DFF8B0150978D3
:100CF0000800DFF89815C0B211EB4001C978DFF8A1
:100D00009025C0B212EB4002D278891A652903DB24
:100D10000121DFF874251170DFF86C0500780128D7
:100D200056D100AA0DF101013B2002F0C1FD0DF1E9
:100D300002020DF10301372002F0BAFD9DF8000018
:100D40009DF80110401A142806DB9DF802009DF85A
:100D50000310401A142803DA0120DFF87C1608700B
:100D60009DF800009DF80110401A51280BDBDFF8B8
:100D700068060078012806D1DFF860060078401C7C
:100D8000DFF858160870DFF85406007804281FDBD7
:100D90000020DFF8F41408700020DFF84016087017
:100DA0000020DFF834160870DFF8340600680128E8
:100DB0000ED1DFF8300690F90000002808D100209D
:100DC000DFF89013096808600120DFF81816087032
:100DD000DFF8800300680068DFF80C1605F072FA8F
:100DE00010D8DFF8000690F9000001280AD1012090
:100DF000DFF8501308600020DFF8E81508700120C4
:100E00003B490870BDE8F183D94FFF1F7104FF1FF4
:100E10007404FF1F70B50024DFF86C04007800280C
:100E20000BD1DFF868044078DFF864144978401A81
:100E3000142828DA0120040025E000250126214895
:100E40000078F6B2864214D2DFF8A005F6B210EBB5
:100E500046004078DFF89415F6B211EB460111F820
:100E6000011C401A05F02AFA062800DB6D1C761CCE
:100E7000E5E7EDB2062D06DBDFF80C04007800286C
:100E800001D10120040018480068C82806DADFF8FC
:100E900050050068012801D101200400E4B2012CB2
:100EA0000BD1DFF84C0590F90000002805D1012096
:100EB000A44908600020A449087070BD7504FF1F94
:100EC0001420FF1FD94FFF1F9C15FF1F000048442F
:100ED0009815FF1FE04FFF1FDF4FFF1FE14FFF1F60
:100EE000D74FFF1F1C10FF1F4C16FF1FCD4FFF1FBA
:100EF000F04FFF1F2DE9F0410400E4B2012C40F057
:100F00008E80DFF8F0040568002600200600DFF878
:100F1000E8040078F6B286427DD2DFF87003F6B2BC
:100F200010EB460040789D2848D0DFF86003F6B209
:100F300010EB46004778DFF8C404007805F0DEF9CE
:100F40008046F6B2300005F0D9F9DFF8A814096838
:100F500005F0F4F90100404605F06EFA05F0E0FAFC
:100F6000381A012822DBDFF82403F6B210EB460022
:100F70004778DFF88804007805F0C0F98046F6B2BB
:100F8000300005F0BBF9DFF86C14096805F0D6F9FC
:100F90000100404605F050FA05F0C2FA381ADFF8B1
:100FA0004C14F6B211EB4601487028E00020DFF83F
:100FB0003C14F6B211EB4601487020E0DFF8CC0299
:100FC000F6B210EB46004078DFF830140978401A8A
:100FD00005F08AF90700F6B2300005F08FF9DFF866
:100FE0001414096805F0AAF9390005F0BBFA05F0F8
:100FF00097FADFF8F813F6B211EB46014870DFF804
:101000008C02F6B210F81600DFF8E013F6B201F821
:101010001600761C7BE7DFF8E80906708DE0E4B285
:10102000022C40F08A80002500200500DFF8C8036C
:101030000078EDB285427DD2DFF85402EDB210EBBC
:1010400045004078022847D0DFF84402EDB210EBAB
:1010500045004678DFF8A403007805F04FF9070053
:10106000EDB2280005F04AF9DFF89413096805F09D
:1010700065F9390005F076FA05F052FA50FA86F073
:101080009F2821DADFF80802EDB210EB4500467820
:10109000DFF86803007805F031F90700EDB22800A9
:1010A00005F02CF9DFF85813096805F047F9390005
:1010B00005F058FA05F034FA8019DFF83013EDB274
:1010C00011EB4501487029E09F20DFF82013EDB2B5
:1010D00011EB4501487021E0DFF8B401EDB210EBEF
:1010E00045004078DFF81413097851FA80F005F0D4
:1010F000FBF80600EDB2280005F000F9DFF8001358
:10110000096805F01BF9310005F02CFA05F008FA22
:10111000DFF8D812EDB211EB45014870DFF870012D
:10112000EDB210F81500DFF8C412EDB201F81500A9
:101130006D1C7BE7DFF8C8080570BDE8F081000092
:10114000D24FFF1F1410FF1FFC4FFF1FF94FFF1F4F
:10115000ED4FFF1FBC04FF1FD64FFF1F52B89E3E2E
:101160000100003F80B5DFF8DC080068DFF8D81820
:1011700005F092F830D2DFF8D4080068DFF8C8181C
:1011800005F08AF828D2DFF8C8080078002823D1B3
:10119000DFF8C008007800281ED1DFF8BC0800780E
:1011A000292819DBDFF8B4080078002814D1DFF80B
:1011B000B008007835494978401A354949784018CF
:1011C00005F07CF8022807DBDFF89408007802219C
:1011D00090FBF1F0894908702C4840782C494978F7
:1011E000401ADFF88C18087001BDDFF87808007825
:1011F000012808D13C20DFF8701808700020DFF8C3
:10120000641808700DE0DFF85C080078022808D147
:101210007FF03B00DFF8501808700020DFF844181A
:101220000870DFF8440890F90000DFF84018086003
:10123000DFF838080068DFF834184860DFF82C0859
:101240004068DFF828188860DFF820088068DFF839
:101250001C18C8607047DFF8A8070078152806DB5F
:10126000624890F82900DFF80C1808700AE05F481F
:10127000DFF88C17097810EB410010F8010CDFF84B
:10128000F417087070470000D14FFF1F2010FF1F98
:10129000E810FF1FE24FFF1FE34FFF1FDE4FFF1F4E
:1012A000DD4FFF1F01000020704780B50022DFF8EE
:1012B0009C070068DFF8C01704F0EEFF11D2DFF8DA
:1012C00084070068DFF8B41704F0FCFF09D8DFF8E2
:1012D00084070078002804D0DFF87407007800281D
:1012E00019D0DFF87007007813282ADBDFF85C07D5
:1012F0000068DFF8841704F0CFFF22D2DFF8500730
:10130000007800281DD1DFF83C070068DFF870176F
:1013100004F0D8FF15D8DFF86C070078012859D100
:10132000DFF864070078002854D1DFF86007007800
:1013300023284FDA012002000120DFF8541708703B
:1013400048E0DFF808070068DFF8301704F0BAFF5C
:1013500011D8DFF8F0060068DFF81C1704F09CFFD6
:1013600009D2DFF8EC060078002804D0DFF8E406A4
:101370000078002819D0DFF8D8060078132829DB78
:10138000DFF8C0060068DFF8F01604F085FF21D210
:10139000DFF8C006007800281CD1DFF8B00600682E
:1013A000DFF8DC1604F08EFF14D8DFF8DC060078D6
:1013B00002280FD1DFF8CC06007800280AD1DFF828
:1013C000D4060078232805DA022002000220DFF884
:1013D000C016087001BD0000E94FFF1FEA4FFF1F54
:1013E0001810FF1FFA4FFF1FC3F5A83EB011FF1FD3
:1013F000F84FFF1F6C04FF1FD84FFF1F7204FF1F21
:101400006804FF1F80B5DFF888060078012840F0E7
:101410007481DFF884060078062809DBDFF86406AB
:101420000078012816D1DFF864060078052811DA63
:10143000DFF86806007800280CD1DFF85C06007839
:10144000632807D00120DFF8541608700120DFF868
:1014500050160870DFF8400600780B280CDBDFF828
:101460003C060078012807D10220DFF8301608700A
:101470000220DFF82C160870DFF8D805007806285F
:1014800011DBDFF8CC05007806280CDBDFF80C0652
:101490000078022807D10320DFF800160870032027
:1014A000DFF8FC150870DFF8F4050078032815D183
:1014B000DFF8F0050078DFF84C180978401A10289A
:1014C0000CDBDFF88C050078052807DA0420DFF84C
:1014D000CC1508700420DFF8C8150870DFF8BC05CB
:1014E000007804281BD1DFF8C0050078002816D149
:1014F000DFF85C0500780B2811DBDFF89C0500782D
:1015000000280CD1DFF84C0500780B2807DB0520FC
:10151000DFF8881508700520DFF884150870DFF8FB
:1015200084050078DFF8DC170978401A0B2804DB03
:10153000DFF874050078632804D0DFF8140500781C
:101540000F280CDADFF854050078052807D10620AB
:10155000DFF8481508700620DFF844150870DFF83A
:10156000480500781A2804DBDFF83C05007863287A
:1015700004D1DFF8E0040078002810D1DFF81C0562
:10158000007806280BD10020DFF804150870002031
:10159000DFF8081508700720DFF804150870DFF879
:1015A000FC040078002803D10220FFF7A3FC12E21C
:1015B000DFF8E8040078012803D10220FFF79AFC45
:1015C00009E2DFF8D8040078022825D1DFF8C80442
:1015D0000078632803D10220FFF78CFCFBE1DFF8E1
:1015E00058080078012804D10120DFF87814087029
:1015F000F1E1DFF8A4040078632800F0EC81DFF863
:1016000098040078052803DB012000F04FFAE2E19E
:101610000120FEF701FFDEE1DFF8800400780328F7
:101620001ED1DFF814080078012804D10120DFF86A
:1016300034140870CFE1DFF86004007863280CD020
:10164000DFF854040078052803DB012000F0F6FBE6
:10165000C1E1012000F0D6F9BDE100F04FFEBAE192
:10166000DFF83804007804282AD1DFF8CC070078A6
:10167000012804D10120DFF8EC130870ABE1DFF89A
:1016800018040078052808DBDFF80C0400786328CC
:1016900003D0012000F00AFA9DE1DFF8FC03007896
:1016A000052809DADFF8F0030078632800F0938159
:1016B0000120FEF7B1FE8EE10220FFF71BFC8AE15C
:1016C000DFF8D803007805280DD1DFF86C07007823
:1016D000012804D10120DFF88C1308707BE1012080
:1016E000FEF79AFE77E1DFF8B4030078062840F0B1
:1016F00072810220FFF7FEFB6DE1DFF894030078B2
:10170000022840F06881DFF8A0030078062809DB92
:10171000DFF874030078022816D1DFF87803007828
:10172000052811DADFF87403007800280CD1DFF8FF
:1017300078030078632807D00120DFF86013087071
:101740000120DFF85C130870DFF85C0300780B28D9
:101750000CDBDFF848030078012807D10220DFF80E
:101760003C1308700220DFF838130870B94800787D
:10177000062810DBB648007806280CDBDFF81C03CF
:101780000078022807D10320DFF810130870032027
:10179000DFF80C130870DFF804030078032813D176
:1017A000AD480078DFF830190978401A10280BDBB3
:1017B000A8480078052807DA0420DFF8E01208704E
:1017C0000420DFF8DC120870DFF8D002007804286B
:1017D00019D1DFF8D4020078002814D19C48007891
:1017E0000B2810DBDFF8B002007800280BD19948F5
:1017F00000780B2807DB0520DFF8A0120870052011
:10180000DFF89C12087094480078DFF8CC1809784B
:10181000401A0B2804DBDFF880020078632803D02D
:101820008C4800780F280CDADFF870020078052861
:1018300007D10620DFF8641208700620DFF8601276
:101840000870DFF8640200781A2809DBDFF8580214
:101850000078032804DADFF850020078632803D107
:101860007B480078002810D1DFF830020078062885
:101870000BD10020DFF8181208700020DFF81C12CE
:1018800008700720DFF818120870DFF810020078DF
:10189000002803D10120FFF72DFB9CE0DFF8FC01BD
:1018A0000078012803D10120FFF724FB93E0DFF843
:1018B000EC010078022823D1DFF8EC0100786328DE
:1018C00003D10120FFF716FB85E0DFF86C050078F7
:1018D000012803D10220634908707CE0DFF8C801C9
:1018E0000078632877D0DFF8C0010078052803DB93
:1018F000022000F0DBF86EE00220FEF78DFD6AE0CA
:10190000DFF89801007803281DD1DFF82C05007856
:10191000012803D10220534908705CE0DFF88801F8
:10192000007863280CD0DFF880010078052803DBFD
:10193000022000F083FA4EE0022000F063F84AE053
:1019400000F0DCFC47E0DFF854010078042828D1DF
:10195000DFF8E4040078012803D10220414908702F
:1019600039E0DFF844010078052808DBDFF83801AA
:101970000078632803D0022000F098F82BE0DFF80D
:1019800028010078052808DADFF81C0100786328B0
:1019900021D00220FEF740FD1DE00120FFF7AAFA4A
:1019A00019E0DFF8F800007805280CD1DFF888048A
:1019B0000078012803D102202A4908700BE0022098
:1019C000FEF72AFD07E0DFF8D4000078062802D1F0
:1019D0000120FFF78FFA01BD80B5DFF8B400007871
:1019E000002801D1FFF761FCDFF8A400007800288F
:1019F00005D00120DFF8F8180870FFF703FD01BDDE
:101A0000D94FFF1F10B5040000200D490870DFF802
:101A1000CC060078401CDFF8C41608700020DFF800
:101A200050190870E4B2012C02D10220FFF762FACB
:101A3000E4B2022C02D10120FFF75CFA10BD0000D5
:101A4000D94FFF1F9C15FF1F000016439815FF1F5D
:101A5000DF4FFF1FE04FFF1FD74FFF1FE84FFF1F54
:101A60007004FF1FCF4FFF1FD64FFF1F7C04FF1FC7
:101A7000D34FFF1FD04FFF1F0000FA4301007A44ED
:101A80000100FA43E34FFF1FE24FFF1FDD4FFF1F2F
:101A9000CD4FFF1FDE4FFF1F7604FF1FCE4FFF1FEE
:101AA000CA4FFF1FD84FFF1F7404FF1FF8B5040073
:101AB00000260027DFF824060078401CDFF81C16FB
:101AC00008700520DFF8A8180870E4B2012C40F077
:101AD000D9800020DFF89C18087000200500EDB2C6
:101AE000DFF89408DFF81019097810F81100D0F128
:101AF0003B0085422DDADFF88008EDB210F81500C2
:101B0000DFF8F417DFF86C28127801F81200DFF81C
:101B10006808EDB210EB45004078DFF86018EDB2D0
:101B200011EB4501497851FA80F0022190FBF1F068
:101B3000DFF8C417DFF83C28127811EB4201487037
:101B4000DFF830080078401CDFF8281808706D1C9A
:101B5000C5E7DFF820080078002806D0DFF8140871
:101B60000078401EDFF80C180870DFF80C08DFF86A
:101B70008818097810F81100DFF8FC17614A12780C
:101B800011F81210401A0A2803DB5E480078632817
:101B900004D1DFF868080078002804D1DFF8640871
:101BA0000078002853D0DFF8D007DFF85018097804
:101BB00010F811000500EDB2002D48D0DFF8B8078D
:101BC000DFF83818097810F811001438EDB2A8427F
:101BD0003DDADFF82C08EDB2A02101FB0500DFF8AB
:101BE0009817DFF81828127811EB42014978085C41
:101BF00065282ADBDFF80808EDB2A02101FB05000B
:101C0000DFF87417DFF8F427127811EB42014978F6
:101C1000081810F8A00C642817DADFF85C07DFF862
:101C2000DC17097810F8110050FA85F0801E0221A7
:101C300090FBF1F00600DFF84007DFF8C0170978E5
:101C400010EB41004078070001E06D1EB3E7DFF8BC
:101C50002807DFF8A417097810F81100DFF8181723
:101C6000284A127811F812100818022190FBF1F09E
:101C700006009D200700FFB23900F6B2300001F0E7
:101C80002BFBD7E0E4B2022C40F0D480002005000A
:101C9000EDB2DFF8E806DFF87017097810F81100E8
:101CA000D0F13B0085422FDADFF8D006EDB210F814
:101CB0001500DFF84416DFF8BC26127801F8120090
:101CC000DFF8B406EDB210EB45004078DFF8AC1653
:101CD000EDB211EB4501497851FA80F0022190FBF9
:101CE000F1F0DFF81416DFF88C26127811EB4201C0
:101CF0004870DFF880060078401CDFF8781608701E
:101D00006D1CC5E77704FF1FDFF868060078002820
:101D100006D0DFF860060078401EDFF8581608701D
:101D2000DFF85806DFF8E016097810F81100DFF840
:101D30004C16DFF8A423127811F81210401A0A2862
:101D400004DBDFF894030078632858D1DFF8BC0681
:101D50000078002853D0DFF82406DFF8B0160978A1
:101D600010F811000500EDB2002D5DD0DFF80C0673
:101D7000DFF89816097810F811001438EDB2A8426F
:101D800052DADFF87C06EDB2A02101FB0500DFF896
:101D9000EC15DFF87826127811EB42014978085CDF
:101DA00065282ADBDFF85806EDB2A02101FB05000B
:101DB000DFF8C815DFF85426127811EB4201497894
:101DC000081810F8A00C642817DADFF8B005DFF85F
:101DD0003C16097810F8110050FA85F0801E022197
:101DE00090FBF1F00600DFF89405DFF82016097883
:101DF00010EB41004078070016E06D1EB3E7DFF8F6
:101E00007C05DFF80416097810F81100DFF86C156E
:101E1000B14A127811F812100818C0B2022190FBD2
:101E2000F1F0060002200700FFB23900F6B23000E0
:101E300001F052FAF1BD0000E14FFF1F70B4002223
:101E40000023A64C2478641CA44D2C700524DFF8D4
:101E500020552C70C0B2012840F0A8800024DFF883
:101E600014552C7000242100C9B2DFF80C45DFF8AE
:101E700088552D7814F81540D4F13B04A1422DDA91
:101E8000DFF8F444C9B214F81140DFF86C54DFF8FD
:101E9000E464367805F81640DFF8DC44C9B214EB88
:101EA00041046478DFF8D454C9B215EB41056D786C
:101EB00055FA84F4022594FBF5F4DFF83C54DFF87E
:101EC000B464367815EB46056C70DFF8A8442478C6
:101ED000641CDFF8A0542C70491CC5E7DFF894445B
:101EE0002478002C06D0DFF88C442478641EDFF8B8
:101EF00084542C70DFF87C442478641C2100DFF8C3
:101F0000F4432478C9B2A1424CD2DFF8EC43DFF8A5
:101F100064542D7814EB45046478DFF86054C9B23A
:101F200015EB41056D7855FA84F4DFF85054DFF86D
:101F3000C864367815EB46056D78641B9F2C1EDA55
:101F4000DFF8B443DFF82C542D7814EB45046478A3
:101F5000DFF82854C9B215EB41056D782C19DFF86C
:101F60001C54DFF89464367815EB46056D78641BD5
:101F7000DFF88453C9B215EB41056C7006E09F246D
:101F8000DFF87453C9B215EB41056C70DFF8EC4310
:101F9000C9B214F81140DFF86053C9B205F8114016
:101FA000491CACE7DFF8CC43217093E0C0B20228B3
:101FB00040F0908000242100C9B2DFF8C043DFF870
:101FC00048542D7814F81540D4F13B04A1422BDA83
:101FD000DFF8A843C9B214F81140C74DDFF8946385
:101FE000367805F81640DFF89043C9B214EB410487
:101FF0006478DFF88853C9B215EB41056D7855FA5E
:1020000084F4022594FBF5F4BB4DDFF86863367861
:1020100015EB46056C70DFF85C432478641CDFF830
:1020200054532C70491CC7E7DFF848432478002C30
:1020300004D0D04C2478641ECE4D2C70CD4C247826
:10204000641C2100AB4C2478C9B2A14240D2AA4CF6
:10205000C84D2D7814EB45046478C74DC9B215EB13
:1020600041056D7855FA84F4C34DDFF89C633678EA
:1020700015EB46056D78641B032C19DB9E4CBD4D9A
:102080002D7814EB45046478BB4DC9B215EB4105BE
:102090006D782C19B84DDFF87063367815EB46056E
:1020A0006D78641B944DC9B215EB41056C7005E069
:1020B0000224914DC9B215EB41056C70AF4CC9B209
:1020C00014F811408C4DC9B205F81140491CB9E70C
:1020D000A84C217070BC70477504FF1FE54FFF1FAF
:1020E000F8B5DFF82C030078401CDFF824130870E3
:1020F00006209F49087000209E4908709E48DFF81E
:102100001413097810F811009B49DFF8F0221278B7
:1021100011F81210884271D2DFF8E0020078050051
:1021200000200400A54218DB934810F814007249FF
:1021300001F81400914810EB440040788E4911EBEF
:102140004401497851FA80F0022190FBF1F06A498C
:1021500011EB44014870641CE4E78648047086482B
:10216000DFF89812097810F811000400012CC0F271
:10217000BD808148DFF88412097810F81100143806
:10218000A04280F2B380DFF87802A02101FB0400B6
:102190007949DFF86822127811EB42014978085C2E
:1021A000652829DBDFF85802A02101FB04007249F1
:1021B000DFF84822127811EB42014978081810F82C
:1021C000A00C642818DA6C48DFF83012097810F88F
:1021D00011002018801E022190FBF1F006006648D5
:1021E000DFF81812097810EB410040780700390039
:1021F000300001F071F879E0641EB7E7DFF81402EF
:102200000078050000200400A54218DB5A4810F8A9
:102210001400394901F81400574810EB4400407885
:10222000564911EB4401497851FA80F0022190FBA4
:10223000F1F0314911EB44014870641CE4E74D486A
:1022400004704E48DFF8CC11097810F81100040032
:10225000012C4BDB4948DFF8BC11097810F811005C
:102260001438A04242DA601E4449DFF8A8211278EF
:1022700011F812101439884238D06148A02101FBAE
:1022800004003E49DFF88C21127811EB42014978B5
:10229000085C652828DB5A48A02101FB0400374967
:1022A000DFF87021127811EB42014978081810F814
:1022B000A00C642818DA3148DFF85811097810F8B2
:1022C00011002018801E022190FBF1F006002B481F
:1022D000DFF84011097810EB410040780700390021
:1022E000300000F0F9FF01E0641EB1E7F1BD00002D
:1022F000E74FFF1FD74FFF1FB011FF1FDFF810116F
:102300000978491CDFF8082111700B21184A117057
:1023100000210800DFF800110978C0B2884226D2F7
:102320001549C0B211F81010DFF8F020114B1B78DE
:1023300002F813101049C0B211EB400149780F4A5E
:10234000C0B212EB4002527852FA81F1022291FBA4
:10235000F2F1DFF8C820074B1B7812EB43025170F3
:1023600004490978491C034A1170401CD2E77047A0
:102370007304FF1FD94FFF1F2010FF1FE810FF1F1E
:10238000DFF8A0201278DFF898301B789A4218D234
:10239000DFF88820DFF88C301B7812EB4302D2780C
:1023A000110000221000DFF87C201278C0B28242B7
:1023B00020D3DFF86820C0B212EB40025170401CFD
:1023C000F1E7DFF85820DFF858301B7812EB4302B2
:1023D000D278110000221000DFF844201278C0B239
:1023E000824207D3DFF83420C0B212EB40025170B2
:1023F000401CF1E7704700007604FF1FDD4FFF1F10
:102400001420FF1FCD4FFF1F7404FF1FDE4FFF1F5F
:10241000E54FFF1FDE4FFF1FD74FFF1FB011FF1FFC
:102420007704FF1F7504FF1F2DE9F04F83B00020D4
:102430008DF803000024002500208DF80000002600
:102440000020DFF8241C0870DFF8200C0078012839
:1024500004D1DFF81C0C007813281DDBDFF8140C06
:10246000007800280ED0DFF8100C0078002809D082
:10247000DFF8080C00781F2804DBDFF8040C007874
:102480001F2809DADFF8FC0B0078022808D1DFF8F2
:10249000F80B0078012803D10120DFF8F01B087049
:1024A000DFF8D00B0078002812D1DFF8CC0B0078D1
:1024B00000280DD1DFF8CC0B0078022804D1DFF81A
:1024C000C80B0078012803D00020DFF8C01B08707B
:1024D000DFF8B80B90F90000002840F00781DFF822
:1024E000C80D0078022848DADFF8940B0078DFF88E
:1024F000B81D0978401A0A2804DBDFF8840B00783D
:1025000063283AD1DFF8A40D0078022835DADFF825
:102510006C0B0078632830D0DFF85C0B00780A2859
:102520002BDADFF8580B0078DFF8801D0978401AA5
:102530001F2822DBDFF84C0B007802281DD0DFF8C3
:10254000700DDFF8701D097810EB410010F8050CD4
:10255000DFF8641DDFF85C2D127811EB420111F8F1
:10256000051C401A462808DA0020FEF79BFE0120D1
:10257000FFF748FA002000F094BEDFF82C0D007839
:10258000022848DADFF8F80A0078DFF81C1D09781D
:10259000401A1F283FDBDFF8140D007802283ADAD2
:1025A000DFF8D80A0078DFF8041D0978401A0A28F5
:1025B00004DBDFF8C80A007863282CD1DFF8B40AFE
:1025C00000780A2827DADFF8C00A0078012822D02C
:1025D000DFF8B00A007802281DD0DFF8D40CDFF84D
:1025E000D41C097810EB410010F8050CDFF8C81C6A
:1025F000DFF8C02C127811EB420111F8051C401ACB
:10260000462808DA0020FEF74DFE0220FFF7FAF90F
:10261000002000F046BEDFF8640A0078DFF8601A98
:102620000978401A03F04AFEDFF8901C09788142CD
:1026300059DADFF84C0A0078632854D0DFF83C0AF6
:10264000007863284FD0DFF82C0A00780F2804DBCD
:10265000DFF8240A00780F2845DADFF8240A00782A
:10266000DFF8181A0978884208D2DFF8100A0078D3
:10267000DFF8381C0978401A062809DADFF8040A5E
:10268000007801280CD1DFF8000A0078012807D172
:102690000120FFF7D3FBFFF773FE002000F001BE1F
:1026A000DFF8D8090078DFF8D8190978884208D20D
:1026B000DFF8CC090078DFF8F01B0978401A06280B
:1026C00009DADFF8C009007802280CD1DFF8B80970
:1026D0000078022807D10220FFF7B0FBFFF750FE79
:1026E000002000F0DEBD002000F0DBBDDFF8D00BE5
:1026F0000078401CDFF8C81B08700A20DFF8C41BF4
:102700000870DFF880090078022840F0B081DFF817
:1027100078090078012840F0AA81DFF8AC0B007836
:10272000002800F0A48100208246DFF89C0B00788E
:102730005FFA8AFA824536D2DFF8900B00785FFAAA
:102740008AFA50452FD3DFF8880B00785FFA8AFAAF
:10275000504528D3DFF8600B5FFA8AFA10F81A00A8
:10276000DFF8701B5FFA8AFA01F81A00DFF8480BED
:102770005FFA8AFA10EB4A004078DFF8341B5FFA00
:102780008AFA11EB4A01497851FA80F0022190FB54
:10279000F1F0DFF8401B5FFA8AFA11EB4A0148704A
:1027A0001AF1010AC1E7BAF10100DFF8BC1808709C
:1027B000DFF8200BDFF8B018097810EB410010F8B3
:1027C000010C8146DFF80C0BDFF89C18097810EB40
:1027D000410010F8020C8246DFF86C0C00780A38D1
:1027E0008DF805005FFA8AFABAF1000F00F0F88060
:1027F000002083469DF805005FFA8BFB83452CD2B1
:10280000DFF8480C5FFA8AFAA02101FB0A005FFAA0
:102810008BFB5BFA89F1085C65280EDBDFF82C0C7A
:102820005FFA8AFAA02101FB0A005FFA8BFB5BFAD0
:1028300089F108184078642806DB5FFA8BFB5BFAA5
:1028400089F0401C9D2805D154461BEB0900401C13
:10285000050002E01BF1010BCCE7002083469DF848
:1028600005005FFA8BFB834534D2DFF8E00B5FFA9B
:102870008AFAA02101FB0A005FFA89F95FFA8BFB53
:10288000B9EB0B01085C652811DBDFF8C00B5FFAC0
:102890008AFAA02101FB0A005FFA89F95FFA8BFB33
:1028A000B9EB0B01081810F8010C642808DB5FFA7B
:1028B00089F95FFA8BFBB9EB0B00401E022806D1A9
:1028C0008DF800A0B9EB0B00401E060002E01BF1E2
:1028D000010BC4E7F6B2EDB2AE424CD2EDB2F6B2A5
:1028E000A81BDFF8641B0978884244DAEDB2F6B21F
:1028F000A81B15283FDBEDB2002D3CD0F6B2002E10
:1029000039D09DF80000E4B2A04234D1F6B2EDB265
:10291000AE4230D201208DF803009DF80000DFF8B0
:102920009819DFF8A429127801F81200DFF8880955
:10293000DFF89419097810EB41004670DFF8700950
:10294000DFF87019097800F81140DFF86409DFF842
:102950006419097810EB41004570DFF858090078D8
:10296000401CDFF850190870DFF85C090078401C43
:10297000DFF8541908709DF8030001282DD1DFF805
:102980005409DFF8E416097810EB410010F8020C46
:10299000401EF6B256FA85F1022291FBF2F19DF843
:1029A0000020C0B2904217D3DFF82829DFF8B836EC
:1029B0001B7802F81300DFF81C29DFF8AC361B780F
:1029C00012EB43025170DFF8A0261278521CDFF898
:1029D00098361A70401EE2E702E0BAF1010A01E7F8
:1029E0009DF80300012840F00684DFF8DC08007839
:1029F00082462000C0B200F0C7FFDFF8CC080078A4
:102A00005FFA8AFA824580F0F683DFF8AC085FFA55
:102A10008AFA10F81A00DFF8BC18DFF84C26127892
:102A200001F81200DFF890085FFA8AFA10EB4A000A
:102A30004078DFF87C185FFA8AFA11EB4A0149788E
:102A400051FA80F0022190FBF1F0DFF88818DFF8EE
:102A50001826127811EB42014870DFF80C06007856
:102A6000401CDFF8041608701AF1010AC5E7DFF808
:102A7000400840789D2804D1DFF83C0840780228BF
:102A80000BD1DFF82C0840789D2800F0D681DFF8C4
:102A900028084078022840F0D0810020DFF8C815CF
:102AA000087000208DF8010000208DF804005020EF
:102AB0008DF8020000208DF8060000208DF8070038
:102AC000002082465FFA8AFABAF14B0F48DA0020FA
:102AD0000700002080463B2081465FFA89F9B9F162
:102AE000030F23DBDFF864095FFA89F9A02101FBFA
:102AF00009005FFA8AFA1AEB000090F85000652886
:102B000000DB7F1CDFF844095FFA89F9A02101FB93
:102B100009005FFA8AFAB0EB0A0090F850006528C5
:102B200001DB18F10108B9F10209D6E79DF80400AC
:102B30005FFA88F8404505D28DF80480DAF150003C
:102B40008DF806009DF80100FFB2B84205D28DF85D
:102B500001701AF150008DF807001AF1050AB1E76B
:102B60009DF801009DF80410884204D29DF80600EB
:102B70008DF8020003E09DF807008DF802000020A8
:102B8000DFF8C8189DF80220511811F5DC510870C3
:102B90000020DFF8341708700020DFF818170870DD
:102BA000DFF8AC08007882469DF802008146DFF825
:102BB000980800780A388DF805005FFA8AFABAF1A9
:102BC000000F00F0F780002083469DF805005FFAB3
:102BD0008BFB83452CD2DFF874085FFA8AFAA021B8
:102BE00001FB0A005FFA8BFB5BFA89F1085C652840
:102BF0000EDBDFF858085FFA8AFAA02101FB0A0011
:102C00005FFA8BFB5BFA89F108184078642806DBD1
:102C10005FFA8BFB5BFA89F0401C9D2805D1544676
:102C20001BEB0900401C050002E01BF1010BCCE787
:102C3000002083469DF805005FFA8BFB834534D264
:102C4000DFF808085FFA8AFAA02101FB0A005FFAA0
:102C500089F95FFA8BFBB9EB0B01085C652811DB86
:102C6000DFF8E8075FFA8AFAA02101FB0A005FFAA1
:102C700089F95FFA8BFBB9EB0B01081810F8010C0E
:102C8000642808DB5FFA89F95FFA8BFBB9EB0B006C
:102C9000401E022806D18DF800A0B9EB0B00401EA3
:102CA000060002E01BF1010BC4E7F6B2EDB2AE4242
:102CB0004CD2EDB2F6B2A81BDFF88C170978884227
:102CC00044DAEDB2F6B2A81B15283FDBEDB2002DB9
:102CD0003CD0F6B2002E39D09DF80000E4B2A042FC
:102CE00034D1F6B2EDB2AE4230D201208DF80300FD
:102CF0009DF80000DFF8C015DFF8CC25127801F848
:102D00001200DFF8B405DFF8C015097810EB4100B8
:102D10004670DFF89C05DFF89C15097800F8114033
:102D2000DFF88C05DFF88C15097810EB4100457051
:102D3000DFF880050078401CDFF878150870DFF8B0
:102D400088050078401CDFF8801508709DF80300A6
:102D500001282CD1F6B256FA85F1022291FBF2F14C
:102D6000C9B29E2901DB50221100C9B2022901DA41
:102D7000502211003B221000DFF834251278C0B237
:102D8000904213D3DFF84C25B74B1B7802F81300A1
:102D9000DFF84025B44B1B7812EB43025170B24A66
:102DA0001278521CB04B1A70401EE5E702E0BAF1EF
:102DB000010A02E79DF80300012840F01C82DFF8B9
:102DC0000805007882462000C0B200F0DDFDDFF883
:102DD000F80400785FFA8AFA824580F00C82DFF806
:102DE000D8045FFA8AFA10F81A00DFF8E8149E4A4D
:102DF000127801F81200DFF8C0045FFA8AFA10EBCB
:102E00004A004078DFF8A8145FFA8AFA11EB4A0109
:102E1000497851FA80F0022190FBF1F0DFF8B41408
:102E2000914A127811EB420148708F480078401C9B
:102E30008D4908701AF1010AC9E78C480078012809
:102E400011D08C480078002803D08B4800780028E7
:102E500009D088480078002840F0CD818648007865
:102E6000002800F0C88100208DF8020000208DF8B5
:102E7000040050208DF8010000208DF8070000208C
:102E80008DF80600002082465FFA8AFABAF14B0FED
:102E900048DA00200700002080463B2081465FFA88
:102EA00089F9B9F1000F23D0DFF8A0055FFA89F99D
:102EB000A02101FB09005FFA8AFA1AEB000090F8E2
:102EC0005000652800DB7F1CDFF880055FFA89F978
:102ED000A02101FB09005FFA8AFAB0EB0A0090F822
:102EE0005000652801DB18F10108B9F10309D6E7A4
:102EF0009DF804005FFA88F8404505D28DF80480FB
:102F0000DAF150008DF807009DF80200FFB2B842D8
:102F100005D28DF802701AF150008DF806001AF1F2
:102F2000050AB1E79DF802009DF80410884204D21A
:102F30009DF807008DF8010003E09DF806008DF86C
:102F400001000020DFF804159DF80120511811F54B
:102F5000DC5108700020DFF8701308700020D5499C
:102F60000870DFF8EC04007882469DF80100814685
:102F7000DFF8D40400780A388DF805005FFA8AFA81
:102F8000BAF1000F00F0F780002083469DF805009D
:102F90005FFA8BFB83452CD2DFF8B0045FFA8AFA24
:102FA000A02101FB0A005FFA8BFB5BFA89F1085C48
:102FB00065280EDBDFF894045FFA8AFAA02101FB92
:102FC0000A005FFA8BFB5BFA89F1081840786428E5
:102FD00006DB5FFA8BFB5BFA89F0401C9D2805D16C
:102FE00054461BEB0900401C050002E01BF1010BDD
:102FF000CCE7002083469DF805005FFA8BFB8345F4
:1030000049D2DFF848045FFA8AFAA02101FB0A00DE
:103010005FFA89F95FFA8BFBB9EB0B01085C652855
:1030200011DBDFF828045FFA8AFAA02101FB0A000D
:103030005FFA89F95FFA8BFBB9EB0B01081810F8FE
:10304000010C642808DB5FFA89F95FFA8BFBB9EBA6
:103050000B00401E02281BD18DF800A0B9EB0B001D
:10306000401E060017E000BFD94FFF1FE14FFF1FB2
:10307000E44FFF1FE04FFF1FDF4FFF1F7704FF1FCD
:103080007504FF1FE24FFF1FE34FFF1FD44FFF1FC9
:103090001BF1010BAFE7F6B2EDB2AE4240D2EDB29A
:1030A000F6B2A81BDFF8A0130978884238DAEDB22F
:1030B000F6B2A81B152833DBEDB2002D30D0F6B2E6
:1030C000002E2DD09DF80000E4B2A04228D1F6B227
:1030D000EDB2AE4224D201208DF803007448754948
:1030E000097800F811409DF800007349764A12787B
:1030F00001F8120070487449097810EB41004670DD
:103100006B486C49097810EB4100457069480078BC
:10311000401C684908706C480078401C6A49087077
:103120009DF80300012823D1F6B256FA85F1022258
:1031300091FBF2F13B2210005D4A1278C0B290423E
:1031400015D3644ADFF83C381B7802F81300614A53
:10315000DFF830381B7812EB43025170DFF8242877
:103160001278521CDFF81C381A70401EE4E702E0A7
:10317000BAF1010A02E79DF80300012839D152484B
:10318000007882462000C0B200F0FEFB4E48007876
:103190005FFA8AFA82452CD247485FFA8AFA10F819
:1031A0001A004C49DFF8DC27127801F81200424877
:1031B0005FFA8AFA10EB4A0040783D495FFA8AFAD2
:1031C00011EB4A01497851FA80F0022190FBF1F0AD
:1031D0004049DFF8B027127811EB42014870DFF860
:1031E000A4070078401CDFF89C1708701AF1010A48
:1031F000CCE7002055E0DFF88C07007803284FDA91
:10320000DFF8140C0078DFF8141C0978884223D208
:10321000002082465FFA8AFABAF10F0F40DA264898
:103220005FFA8AFA10F81A002A49DFF8582712784C
:1032300001F812009D202749DFF84827127811EB8A
:1032400042014870DFF83C070078401CDFF8341773
:1032500008701AF1010ADDE7002082465FFA8AFA57
:10326000BAF10F0F1CDA14485FFA8AFA10F81A0044
:103270001849DFF81027127801F8120002201549CA
:10328000DFF80027127811EB42014870DFF8F406EE
:103290000078401CDFF8EC1608701AF1010ADDE72F
:1032A0000020BDE8FE8F00007404FF1F7604FF1F9E
:1032B0002010FF1FD84FFF1FE810FF1F6604FF1FDD
:1032C000E54FFF1F7304FF1FD74FFF1FDD4FFF1F89
:1032D000DE4FFF1FB011FF1FF0B4DFF8486BDFF8BF
:1032E000A4763F7816EB470616F8026C361A3200C1
:1032F000DFF8306BDFF88C763F7816EB470616F870
:10330000016C8E1B3300DFF87C663678761E350044
:10331000012B4ADB01263400A242C0F29280DFF882
:10332000046B16EB4506767803FB04F797FBF2F780
:1033300057FA86F69E2E0ADB9D26DFF8E87ADFF83C
:1033400044C69CF800C017EB4C077E7012E0DFF813
:10335000D46A16EB4506767803FB04F797FBF2F781
:10336000BE19DFF8C07ADFF81CC69CF800C017EB66
:103370004C077E70DFF8AC6ADFF808763F7816EB12
:10338000470616F8026C761EDFF8987ADFF8F4C567
:103390009CF800C007F81C60DFF8E8653678761CFA
:1033A000DFF8E0753E70641CB6E7012B49DA5B423A
:1033B00001263400A24244DBDFF8686A16EB4506BA
:1033C000767803FB04F797FBF2F7F61B022E0ADA76
:1033D0000226DFF8507ADFF8ACC59CF800C017EB86
:1033E0004C077E7012E0DFF83C6A16EB45067678F3
:1033F00003FB04F797FBF2F7F61BDFF8287ADFF8F8
:1034000084C59CF800C017EB4C077E70DFF8146A87
:10341000DFF870753F7816EB470616F8026C761EDB
:10342000DFF8007ADFF85CC59CF800C007F81C6084
:10343000DFF850653678761CDFF848753E70641CFE
:10344000B8E7F0BC704700006704FF1F1420FF1F9F
:103450006504FF1F2DE9F043DFF8CC090078002850
:1034600040F019816320DFF8C47938706320DFF8F9
:10347000C07938706320DFF8BC7938706320DFF8DA
:10348000B87938700020DFF8B47938700020DFF8A0
:10349000B07938700020DFF8AC7938700020050072
:1034A0000020010033003400002006009D275FF05B
:1034B000000C5FF0000E3B20C0B23928C0F28D81B5
:1034C0005FF00008C6465FF0000845465FF002085E
:1034D00043465FF0000841465FF0020842469D2ADD
:1034E00027DADFF83C89C0B25FF0A00909FB008849
:1034F00012F80880B8F1650F0FDBDFF82489C0B23D
:103500005FF0A00909FB008812EB080898F8018019
:10351000B8F1650F01DB491C09E0A94203DB140087
:103520000D009C46A6465FF0000841461300521C61
:10353000D5E7A94203DB14000D009C46A6461EF108
:103540000108B8F19E0F02DB5FF09D08C646BCF192
:10355000030F02DA5FF00208C446DFF8EC88DFF8F8
:10356000E49899F8009018EB490888F801E0DFF832
:10357000D888DFF8D09899F8009008F81900DFF89B
:10358000CC88DFF8BC9899F8009018EB490888F8C7
:1035900001C0DFF8B888DFF8A89899F8009008F81B
:1035A0001900BEF19D0F17D1DFF8848898F80080CC
:1035B000B8F1630F08D1DFF88C8898F80080DFF845
:1035C000709889F8008007E0DFF8788898F8008024
:1035D000DFF8589889F80080BCF1020F17D1DFF8A6
:1035E000588898F80080B8F1630F08D1DFF8508848
:1035F00098F80080DFF8409889F8008007E0DFF84D
:10360000408898F80080DFF82C9889F80080DFF86F
:10361000348898F8008018F10108DFF8289889F8B4
:103620000080DFF81C8898F8008018F10108DFF8A6
:10363000109889F80080BEF19D0F2AD1BCF1020FCD
:1036400027D1DFF80488DFF8FC9799F8009018EB91
:10365000490808F8020CDFF8F087DFF8E89799F8D6
:10366000009018EB490818F8028CDFF8D09789F819
:1036700000805FF00108DFF8D89789F80080DFF854
:10368000D48798F80080B8F1010F02D15FF0FF30C5
:103690000CE1401E10E73B20C0B23928C0F29D80EB
:1036A0000221C9B29D2948DADFF87427C0B2A023ED
:1036B00003FB0022C9B28A5C642A21DADFF86027A2
:1036C000C0B2A02303FB0022C9B28A185278652A2F
:1036D00016DBDFF87827DFF868371B7812EB430238
:1036E0005170DFF86817DFF85827127801F81200D8
:1036F000DFF84C170978491CDFF8442711701CE0EB
:10370000C9B2782917D10221DFF84027DFF8303716
:103710001B7812EB43025170DFF83017DFF82027D7
:10372000127801F81200DFF818170978491CDFF841
:103730001027117001E0491CB3E79D21C9B203298C
:1037400049DBDFF8DC26C0B2A02303FB0022C9B2AC
:103750008A5C642A22DADFF8C826C0B2A02303FB01
:103760000022C9B28A1812F8012C652A16DBDFF88C
:10377000D826DFF8D0361B7812EB43025170DFF801
:10378000C816DFF8C026127801F81200DFF8B41668
:103790000978491CDFF8AC2611701CE0C9B2142965
:1037A00017D19D21DFF8A026DFF898361B7812EBA1
:1037B00043025170DFF89016DFF88826127801F87E
:1037C0001200DFF880160978491CDFF8782611709E
:1037D00001E0491EB2E7401E5EE700210120010022
:1037E000C9B2032961DADFF86006C9B210EB410003
:1037F0004078DFF85426C9B212EB410212F8012CCE
:10380000801A0B2807DBDFF8500601700120DFF873
:103810004C26107017E0DFF83006C9B210EB4100FB
:103820004078DFF82426C9B212EB410212F8012CCD
:10383000801A10F10A0F06DADFF81C060170022068
:10384000DFF818261070DFF80406C9B210EB41004B
:103850004078DFF8F825C9B212EB410212F8012CCA
:10386000801A0B2807DBDFF8F80501700120DFF86C
:10387000B02C107017E0DFF8D405C9B210EB41008E
:103880004078DFF8C825C9B212EB410212F8012CCA
:10389000801A10F10A0F06DADFF8C4050170022061
:1038A000DFF87C2C1070491C9AE70120BDE8F083FA
:1038B0002DE9F04F5FF0000C5FF0000E77465FF0EF
:1038C000000E7346654666465FF0000EF4465FF0F4
:1038D000000E5FF000085FF00009C8465FF00009C5
:1038E0004F465FF002094D465FF000094B468146A6
:1038F0005FF0020A54469D2C29DADFF824A55FFA0E
:1039000089F95FF0A00B0BFB09AA14F80AA0BAF121
:10391000650F10DBDFF808A55FFA89F95FF0A00BEF
:103920000BFB09AA14EB0A0A9AF801A0BAF1650F79
:1039300001DB5B1C09E0BB4203DB26001F00AE4637
:10394000B0465FF0000A53462500641CD3E7BB4233
:1039500003DB26001F00AE46B04618F1010ABAF19B
:103960009E0F02DB5FF09D0AD046BEF1030F02DA24
:103970005FF0020AD64681F800E082F80080BDE8D8
:10398000F08F0000D94FFF1F2DE9F0410400002502
:103990000020DFF8881408700020DFF87C1408701D
:1039A0000020DFF8B41408700020DFF8B4140870A9
:1039B0000020DFF8A81408700020DFF8641B0870EE
:1039C000DFF88404DFF87C14097810EB410010F86C
:1039D000010C0700DFF87404DFF86414097810EBB9
:1039E000410010F8010C8046E4B22600012EC0F21E
:1039F0001082DFF85404DFF84C14097810EB410012
:103A000010F8020C864280F2BB80DFF81404A0217B
:103A100001FB0600385C652860DB9E2F80F2A980E0
:103A20006D1C781C9D2822DBDFF81C04DFF81414C1
:103A3000097800F811609D20DFF80C14DFF80424E9
:103A4000127811EB42014870DFF8E4030078632834
:103A500006D1DFF8F0030078DFF8D413087005E032
:103A6000DFF8E0030078DFF8C413087081E0DFF8C6
:103A7000B003A02101FB0600385C652819DBDFF8E4
:103A8000A003A02101FB060038184078642810DA52
:103A9000DFF8B403DFF8AC13097800F81160781C84
:103AA000DFF8A413DFF89C23127811EB4201487071
:103AB0005FE0EDB20B2D0FDBDFF89C0300780028F0
:103AC0000AD10120DFF894130870DFF8780300783A
:103AD000401EDFF8841308707F1C9EE7012F48DB2F
:103AE0006D1C781E002811D1DFF85C03DFF8541339
:103AF000097800F811603800401EDFF84C13DFF839
:103B00004423127811EB4201487032E0DFF81003D1
:103B1000A02101FB0600385C642819DADFF80003F5
:103B2000A02101FB0600381810F8010C65280FDBF6
:103B3000DFF81403DFF80C13097800F81160DFF8E0
:103B40000803DFF80013097810EB4100477010E01C
:103B5000EDB20B2D0BDBC0480078002807D1022006
:103B6000BE490870B7480078401EBB4908707F1EE8
:103B7000B4E7B4480078401CB24908700020050042
:103B8000B248AF49097810EB410010F8020C8642A8
:103B900080F2AC80A248A02101FB060018F80000CA
:103BA000642847DAB8F19F0F80F299806D1C18F1F4
:103BB00001009D280DD1A548A149097800F81160A0
:103BC00018F10100A1499E4A127811EB4201487098
:103BD00085E09348A02101FB060018F80000642846
:103BE00015DA8F48A02101FB060018EB0000407891
:103BF00065280CDB95489249097800F811609348D4
:103C00008F49097810EB410080F8018067E0EDB240
:103C10000B2D0CDB92480078002808D10120DFF83A
:103C20000019087086480078401E8D49087018F108
:103C30000108B7E7B8F1020F51DB6D1CB8F10100C4
:103C4000032819DA81487E49097800F811600220BA
:103C50007E497B4A127811EB420148707648007821
:103C6000632804D1764800787349087003E07448EB
:103C700000787049087032E06948A02101FB060015
:103C800018F80000652817DB6548A02101FB060035
:103C900018EB000010F8010C64280DDA6B48684935
:103CA000097800F811604046401E6849644A12785D
:103CB00011EB4201487012E0EDB20B2D0CDB6848AD
:103CC0000078002808D10220DFF8541808705C48FA
:103CD0000078401E62490870B8F10108AAE7002088
:103CE000050057480078401C55490870574854490A
:103CF000097810EB410010F8010C5349514A127831
:103D000011EB420111F8011C884213D34F484C4972
:103D1000097810EB410010F8020C48490870484837
:103D20000078401E4649087046480078401E4549C4
:103D300008706EE045484249097810EB410010F8E0
:103D4000010C41493F4A127811EB420111F8011C64
:103D5000401A02F0B3FA0D2813DA3C4838490978C2
:103D600010EB410010F8020C344908703448007818
:103D7000401E3349087033480078401E31490870AE
:103D800047E0274831492E4A127811EB420111F8D9
:103D9000021CA02202FB01002C49294A127811EBD7
:103DA000420111F8011C085C65282BDB1C482649E0
:103DB000244A127811EB420111F8021CA02202FBE6
:103DC000010021491F4A127811EB420111F8011C30
:103DD000085C652816DB1D481949097810EB41007D
:103DE00010F8020C1549087015480078401E144957
:103DF000087014480078401E1249087001201449C8
:103E0000087006E0022E02DA0C48067001E0761E09
:103E1000ECE50120BDE8F081DF4FFF1FE04FFF1F01
:103E20001420FF1FB011FF1FD14FFF1F7704FF1F8A
:103E30007604FF1F7504FF1F7404FF1FE44FFF1F6C
:103E4000D74FFF1FD84FFF1F2010FF1FE810FF1F85
:103E5000E14FFF1FE74FFF1FDD4FFF1FE34FFF1F26
:103E6000DE4FFF1F2DE9F843002400250026012026
:103E7000DFF8081B0870FFF7EDFADFF8041BDFF826
:103E8000042B127811EB420111F8011C8846DFF86F
:103E9000F81ADFF8F82A127811EB420111F8011C28
:103EA00089463B210F00012FC0F2F582DFF8D00ACE
:103EB000DFF8D01A097810EB410010F8020C8742A5
:103EC00080F21B81DFF8C80AA02101FB070018F867
:103ED00000006528C0F2B380B8F19E0F80F2048123
:103EE000641C18F101009D286EDBDFF8940ADFF8EE
:103EF000941A097800F811709D20DFF8841ADFF811
:103F0000842A127811EB42014870DFF8880A90F990
:103F10000000002831D1DFF8800A0078632805D13D
:103F2000DFF8600A0078DFF8701A0870DFF8540ACA
:103F30000078401EDFF8641A0978884204D0DFF860
:103F40005C0A0078632806D1DFF8380A0078DFF8C9
:103F50004C1A087011E0DFF82C0A0078401EDFF8D8
:103F60003C1A0978884208D0DFF8300A00786328C4
:103F700003D00120DFF81C1A0870DFF8180A90F946
:103F8000000001281FD1DFF8180A0078632806D145
:103F9000DFF8F0090078DFF8081A087013E0DFF89E
:103FA000E4090078401EDFF8FC190978884204D043
:103FB000DFF8F0090078632805D1DFF8C809007838
:103FC000DFF8E01908708FE0DFF8C409A02101FBD9
:103FD000070018F8000065281BDBDFF8B409A021F2
:103FE00001FB070018EB00004078642811DADFF8C5
:103FF0009009DFF89019097800F8117018F10100A4
:10400000DFF87C19DFF87C29127811EB4201487047
:104010006AE0E4B20B2C0FDBDFF88C090078002893
:104020000AD10120DFF884190870DFF858090078F8
:10403000401EDFF87419087018F101084CE7B8F158
:10404000010F51DB641CB8F10100002811D1DFF829
:104050003009DFF83019097800F811704046401E29
:10406000DFF81C19DFF81C29127811EB42014870A7
:104070003AE0DFF81C09A02101FB070018F8000056
:1040800064281BDADFF80809A02101FB070018EB00
:10409000000010F8010C652810DBDFF8E408DFF8F9
:1040A000E418097800F81170DFF8D408DFF8D418A4
:1040B000097810EB410080F8018015E0E4B20B2C88
:1040C0000FDBDFF8E408007800280AD10220DFF8CF
:1040D000DC180870DFF8AC080078401EDFF8C8185C
:1040E0000870B8F10108AAE7DFF898080078401CCA
:1040F000DFF89018087000200400DFF88C08DFF863
:104100008C18097810EB410010F8020C874280F2FD
:104110001981DFF87C08A02101FB070019F80000D5
:10412000642853DAB9F19F0F80F20381641C19F1FE
:1041300001009D2811D1DFF85008DFF850180978E8
:1041400000F8117019F10100DFF83C18DFF83C2885
:10415000127811EB42014870EBE0DFF83408A0213F
:1041600001FB070019F8000064281ADADFF82008BC
:10417000A02101FB070019EB00004078652810DB47
:10418000DFF80408DFF80418097800F81170DFF888
:10419000F807DFF8F817097810EB410080F8019074
:1041A000C7E0E4B20B2C0EDBDFF80408007800282F
:1041B00009D10120DA490870DFF8D0070078401EE5
:1041C000DFF8EC17087019F10109ABE7B9F1020F3C
:1041D000C0F2AF80641CB9F1010003286EDADFF889
:1041E000A807DFF8A817097800F811700220DFF897
:1041F0009817DFF89827127811EB42014870DFF822
:10420000B40790F90000002831D1DFF8AC0700783E
:10421000632805D1DFF874070078DFF89C17087071
:10422000DFF868070078401EDFF8901709788842A9
:1042300004D0DFF888070078632806D1DFF84C0740
:104240000078DFF87817087011E0DFF83807007899
:10425000401EDFF868170978884208D0DFF85C074D
:104260000078632803D00120DFF848170870DFF8D2
:10427000440790F9000001281FD1DFF844070078B7
:10428000632806D1DFF804070078DFF834170870D8
:1042900013E0DFF8F8060078401EDFF828170978E9
:1042A000884204D0DFF81C070078632805D1DFF8C6
:1042B000DC060078DFF80C1708703AE0DFF8D0066B
:1042C000A02101FB070019F8000065281CDBDFF8BE
:1042D000C006A02101FB070019EB000010F8010C3B
:1042E000642811DADFF8A006DFF8A016097800F8D4
:1042F00011704846401EDFF89016DFF890261278BD
:1043000011EB4201487014E0E4B20B2C0EDBDFF835
:10431000A0060078002809D1022081490870DFF842
:104320006C060078401EDFF888160870B9F10109A4
:104330004CE700200400DFF854060078401CDFF84A
:104340004C160870DFF84006DFF84016097810EBCD
:10435000410010F8010CDFF82816DFF82826127843
:1043600011EB420111F8011C884223D30120DFF830
:1043700058160860DFF85406007800280BD1DFF8E3
:104380000806DFF80816097810EB410010F8020C57
:10439000DFF838160870DFF8F4050078401EDFF803
:1043A000EC150870DFF8DC050078401EDFF8D41546
:1043B000087070E0DFF8D005DFF8D015097810EB51
:1043C000410010F8010CDFF8B815DFF8B8251278B5
:1043D00011EB420111F8011C401A01F06FFF152882
:1043E00021DA2D2F1FDADFF8E405007800280BD141
:1043F000DFF89405DFF89415097810EB410010F808
:10440000020CDFF8C8150870DFF880050078401E40
:10441000DFF878150870DFF86C050078401EDFF8CB
:104420006415087037E0DFF86005DFF8601509787B
:1044300010EB410010F8010C02281FD1DFF84005F5
:10444000DFF84015097810EB410010F8010C9D28A9
:1044500014D10120DFF878150870DFF870050078B6
:1044600000280BD1DFF82005DFF82015097810EBC4
:10447000410010F8020CDFF854150870022F08DA1A
:10448000DFF848050078002802D1DFF84005077002
:1044900001E07F1E07E5DFF80805007863281BD0E0
:1044A000DFF8F8040078DFF8F0140978401ADFF834
:1044B000F4140978DFF8E8241278891A88420BDAB4
:1044C000DFF8DC040078DFF8D0140870DFF8D404DB
:1044D0000078DFF8C8140870DFF8E4040078632877
:1044E0001BD0DFF8D8040078DFF8CC140978401A24
:1044F000DFF8D0140978DFF8C8241278891A8842C6
:104500000BDADFF8BC040078DFF8AC140870DFF8D1
:10451000B4040078DFF8A4140870BDE8F18300004B
:10452000E24FFF1F70B50024DFF8A40400780128D3
:1045300005D1DFF848040078002800F057810025F5
:1045400000200400E4B2DFF844040078C01E844276
:104550003ADADFF83404E4B210EB44004078032880
:1045600030DBDFF82404E4B210EB4400C079DFF85C
:104570001814E4B211EB44014978401A4000DFF806
:104580000814E4B211EB44018979DFF8FC23E4B2AA
:1045900012F81420891A90FBF1F001F0A5FEDFF863
:1045A0003414EDB241F82500DFF82C040168DFF87F
:1045B0002404E4B250F8240001F0D4FFDFF818140A
:1045C00008606D1C641CBDE7EDB2280001F096FE8A
:1045D0000100DFF80404006801F0B0FEDFF8F81312
:1045E000086000200400E4B2EDB2AC4221D2DFF852
:1045F000E403E4B250F82400DFF8DC13096801F0AA
:104600001BFF0600DFF8CC03E4B250F82400DFF80B
:10461000C813096801F010FF310001F0E5FFDFF871
:10462000BC13096801F09EFFDFF8B0130860641C3A
:10463000D9E70020050000200400E4B2DFF84403BD
:104640000078C01E84422EDACD48E4B210EB44005C
:10465000C079CB49E4B211EB44014978401A4000DB
:10466000C749E4B211EB44018979C54AE4B212F8B2
:104670001420891A90FBF1F001F036FEDFF8601388
:10468000EDB241F82500DFF85C030068DFF8501355
:10469000E4B251F8241001F065FFDFF84813086018
:1046A0006D1C641CC9E7EDB2280001F027FE010073
:1046B000DFF83003006801F041FEDFF828130860DE
:1046C00000200400E4B2EDB2AC4221D2DFF81003C6
:1046D000E4B250F82400DFF80C13096801F0ACFED6
:1046E0000600DFF8FC02E4B250F82400DFF8F41210
:1046F000096801F0A1FE310001F076FFDFF8E81251
:10470000096801F02FFFDFF8E0120860641CD9E7A8
:104710000020DFF8D812087000200400E4B29B48A3
:104720000078401E84421DDA9748E4B210EB440042
:104730004078032814DADFF8B4020078401CDFF870
:10474000AC1208709048E4B210EB4400C078032823
:1047500006DBDFF89C020078401CDFF8941208703A
:10476000641CDBE70020DFF88C12087000200400D6
:1047700084480078E4B284421DD28148E4B210EB50
:10478000440040789D2814DBDFF868020078401C64
:10479000DFF8601208707A48E4B210EB4400C07889
:1047A0009D2806DADFF850020078401CDFF8481236
:1047B0000870641CDCE7DFF840020078002807D1AD
:1047C00075480078632803D00120DFF82C120870A8
:1047D000DFF81C020078002808D1DFF8DC0100783F
:1047E000632803D00120DFF80812087070BD80B57F
:1047F000DFF8BC01007800281AD06B480078002848
:1048000016D0DFF8AC01007867490978401A01F04A
:1048100055FDDFF8E8110978884204DA0120DFF855
:10482000E011087008E00020DFF8D411087003E000
:104830000020DFF8CC11087001BD80B5DFF87801E9
:10484000007863280DD054480078632809D0DFF839
:104850006801007850490978401A01F02FFD1528A9
:1048600011DADFF854010078632803D14A48007850
:10487000632808D1DFF84001007863282DD046482E
:104880000078632829D1DFF830010078052811DA93
:10489000DFF8580100780A280CDA0020DFF84C1104
:1048A00008706320DFF8101108706320DFF80C1126
:1048B000087012E03848007805280EDADFF8340175
:1048C00000780A2809DA0020DFF828110870632030
:1048D00031490870632031490870374800782E4903
:1048E0000978401A01F0EAFC152809DB3F480078F6
:1048F000052803DB3F480078052801DA002000E0A6
:10490000012002BD704780B53E480078002816D1CE
:1049100026480078022812D11F48007803280EDAB2
:104920001E4800781C490978401A0A2807DA2248EC
:104930000078632803D1FDF777FD01201BE03148A3
:104940000078012816D119480078002812D11A4899
:10495000007803280EDA1948007817490978401AB8
:104960000A2807DA0C480078632803D1FDF75CFDBC
:10497000012000E0002002BD00000000E74FFF1F03
:104980002010FF1FD84FFF1FE810FF1FD74FFF1F3A
:104990001420FF1FDB4FFF1F7604FF1F7704FF1F4C
:1049A0007A04FF1F7B04FF1FDD4FFF1FE34FFF1F34
:1049B000DE4FFF1FDC4FFF1F7404FF1F7504FF1F36
:1049C0007804FF1F7904FF1FB815FF1FE44FFF1F76
:1049D000E14FFF1F7812FF1FA015FF1F9815FF1F43
:1049E0000814FF1FA415FF1F9C15FF1FDF4FFF1F9B
:1049F000EB4FFF1FE04FFF1FEC4FFF1F6404FF1F33
:104A0000E64FFF1FE24FFF1F80B5FFF77CFF012835
:104A100000F0D885FFF711FFFFF7E9FEFFF772FFFF
:104A2000FCF7A0FBFCF7D8FFDFF89C0B0078002810
:104A300040F0C885DFF8940B0078012806D10A20E1
:104A4000FCF730FCFDF7F0FC00F0BCBDDFF8800B9C
:104A500000780428C0F28B82DFF8780B00780528F4
:104A600080F28582DFF8700BDFF8701B097810F890
:104A700011003828C0F22181DFF85C0BDFF8601BE1
:104A8000097810F81100DFF8501BDFF8582B127866
:104A900011EB420111F8021C401A082807DA002025
:104AA000FCF700FC0220FCF7ADFF00F08BBDDFF847
:104AB000300B0078DFF8241B0978401A1A283FDBF6
:104AC000DFF8200B00782E2832DBDFF81C0B007893
:104AD00001280AD1DFF8140B0078012805D106203F
:104AE000FCF7E0FBFDF7FCFA28E0DFF8FC0A0078B1
:104AF000012804D0DFF8F40A0078012812D1DFF889
:104B0000D00A0078292806DB0020FCF7CBFB022026
:104B1000FCF778FF04E00120FCF7C4FBFDF7EEFB97
:104B200000F050BD0120FCF7BDFBFDF7E7FB05E001
:104B30000020FCF7B7FB0220FCF764FF00F042BD49
:104B4000DFF8AC0A006801F0EBFCB0F57A7F1FDDFE
:104B5000DFF8A00A006801F0E3FCB0F57A7F17DD0A
:104B6000DFF8800A0078DFF8781A0978401A1A28E6
:104B700006DB0120FCF796FBFDF7C0FB00F022BD31
:104B80000020FCF78FFB0220FCF73CFF00F01ABD71
:104B9000DFF85C0A006801F0C3FCB0F52F7F28DA6B
:104BA000DFF8500A006801F0BBFCB0F52F7F20DA77
:104BB000DFF8240ADFF8281A097810EB4100C078E2
:104BC000DFF8141ADFF8182A127811EB420149783D
:104BD000401A092806DB0A20FCF764FBFDF724FCD9
:104BE00000F0F0BC0120FCF75DFBFDF787FB00F057
:104BF000E9BCDFF8FC09006801F092FCB0F57A7FAF
:104C000037DDDFF8F009006801F08AFCB0F57A7F43
:104C10002FDADFF8D4090078012810D1DFF8CC09A9
:104C2000007801280BD1DFF8840B0078012806D129
:104C30000620FCF737FBFDF753FA00F0C3BCDFF8A2
:104C4000B409006801F06CFCB0F5487F0ADADFF8BF
:104C50009C090078012805D10120FCF723FBFDF712
:104C60004DFB04E00A20FCF71DFBFDF7DDFB00F027
:104C7000A9BCDFF8940BDFF86819097810EB410044
:104C80004078DFF85419DFF85829127811EB420107
:104C90004978401ADFF8741B09780A39884205DA26
:104CA0000120FCF7FFFAFDF729FB04E00A20FCF7DE
:104CB000F9FAFDF7B9FB00F085BCDFF81C09DFF855
:104CC0002019097810F81100DFF80C19DFF8142901
:104CD000127811EB420111F8021C401A082863DA1D
:104CE000DFF80C09006801F01BFCB0F57A7F0DDBE2
:104CF000DFF8F4080078022810D1DFF8F408006823
:104D000001F00EFC40F2DC51884207DA0520FCF786
:104D1000C9FA0220FDF792F800F054BCDFF8CC0885
:104D20000078022811D1DFF8C008007802280CD1E1
:104D3000DFF8780A0078012807D10520FCF7B2FADD
:104D40000220FDF77BF800F03DBCDFF8A0080078FA
:104D5000012810D1DFF89008007802280BD1DFF885
:104D60004C0A0078012806D10A20FCF79BFAFDF7CF
:104D70005BFB00F027BCDFF87808006801F0D0FB8F
:104D8000B0F5FA7F80F21684DFF86808006801F059
:104D9000C7FBB0F5FA7F80F20D840120FCF782FAA0
:104DA000FDF7ACFA00F00EBCDFF8380800782E28CA
:104DB00010DADFF83808007802280BD1DFF828086D
:104DC0000078022806D10520FCF76CFA0220FDF7D6
:104DD00035F8F7E3DFF81808006801F0A1FBB0F53B
:104DE000FA7F1EDADFF80C08006801F099FBB0F5D5
:104DF000FA7F16DADFF8D80700780A280BDBDFF82D
:104E0000EC070078022806D10520FCF74BFA0220B7
:104E1000FDF714F8D6E30120FCF744FAFDF76EFA2B
:104E2000D0E3DFF8CC07006801F07AFBB0F57A7FB9
:104E300025DADFF8B8070078022806D10520FCF74C
:104E400031FA0220FCF7FAFF18E0DFF8A807006843
:104E500001F066FBB0F57A7F0ADADFF888070078A0
:104E60002E2805DB0120FCF71DFAFDF747FA05E0C7
:104E70000520FCF717FA0220FCF7E0FFA2E3DFF8B9
:104E80007007006801F04CFBB0F57A7F23DDDFF896
:104E90006407006801F044FBB0F57A7F1BDDDFF8A2
:104EA0004C070078012804D1DFF83C07007802287D
:104EB00004D0DFF8F8080078002805D10A20FCF7B4
:104EC000F1F9FDF7B1FA7DE30520FCF7EBF90220DB
:104ED000FCF7B4FF76E3DFF81C07006801F020FB65
:104EE000B0F57A7F1EDADFF80807006801F018FBDA
:104EF000B0F57A7F16DDDFF8F406007802280BD1D2
:104F0000DFF8E4060078012806D10520FCF7CAF98D
:104F10000220FCF793FF55E30120FCF7C3F9FDF7EE
:104F2000EDF94FE3DFF8CC06006801F0F9FAB0F5CF
:104F30007A7F40F33F83DFF8B806006801F0F0FAAB
:104F4000B0F57A7F80F23683DFF8A0060078022879
:104F500040F03083DFF890060078012840F02A8383
:104F60000520FCF79FF90220FCF768FF2AE3DFF831
:104F700060060078052880F24782DFF8580600783E
:104F80000428C0F24182DFF88008DFF8E41A0978CB
:104F900010F811003828C0F22E81DFF86C08DFF815
:104FA000D41A097810F81100DFF85C18DFF8C82A65
:104FB000127811EB420111F8021C401A082806DA97
:104FC0000020FCF76FF90120FCF71CFDFAE2DFF886
:104FD000A40A0078DFF8981A0978401A1A283DDBED
:104FE000DFF8000600782E2831DBDFF8FC050078BA
:104FF00002280AD1DFF8F4050078022805D106203E
:10500000FCF750F9FDF76CF827E0DFF8DC050078D5
:10501000022804D0DFF8D4050078022811D1DFF887
:10502000B4050078292806DB0020FCF73BF90120B5
:10503000FCF7E8FC04E00120FCF734F9FDF75EF929
:10504000C0E20120FCF72EF9FDF758F905E0002039
:10505000FCF728F90120FCF7D5FCB3E2DFF8900556
:10506000006801F05DFAB0F57A7F1DDDDFF8840598
:10507000006801F055FAB0F57A7F15DDDFF8F80920
:105080000078DFF8F0190978401A1A2805DB0120AA
:10509000FCF708F9FDF732F994E20020FCF702F979
:1050A0000120FCF7AFFC85E2DFF84405006801F061
:1050B00037FAB0F52F7F26DADFF83805006801F0FF
:1050C0002FFAB0F52F7F1EDADFF83C07DFF8A419BE
:1050D000097810EB41004078DFF82C17DFF89429AD
:1050E000127811EB4201C978401A092805DB0A2021
:1050F000FCF7D8F8FDF798F964E20120FCF7D2F844
:10510000FDF7FCF85EE2DFF8E804006801F008FA59
:10511000B0F57A7F0EDDDFF8DC04006801F000FAFC
:10512000B0F57A7F06DD0020FCF7BCF80120FCF723
:1051300069FC47E2DFF8BC04006801F0F1F9B0F562
:105140007A7F35DDDFF8A804006801F0E9F9B0F5F1
:105150007A7F2DDADFF89004007802280FD1DFF88B
:105160008C04007802280AD1DFF840060078012874
:1051700005D10620FCF796F8FCF7B2FF22E2DFF833
:105180007004006801F0CCF9B0F5487F0ADADFF866
:1051900058040078022805D10120FCF783F8FDF7B8
:1051A000ADF807E20A20FCF77DF8FDF73DF901E2D2
:1051B000DFF85406DFF8BC18097810EB410040789E
:1051C000DFF81414DFF8AC28127811EB42014978AB
:1051D000401ADFF8381609780A39884205DA0120C2
:1051E000FCF760F8FDF78AF804E00A20FCF75AF8AB
:1051F000FDF71AF9E6E1DFF8EC0300782E2810DA63
:10520000DFF8E803007802280BD1DFF8DC03007830
:10521000012806D10520FCF745F80120FCF70EFE19
:10522000D0E1DFF8E405DFF84C18097810F8110038
:10523000DFF8D415DFF84028127811EB420111F89D
:10524000021C401A082853DADFF8A803006801F0AE
:1052500067F9B0F57A7F0DDBDFF88C030078012861
:105260000FD1DFF89003006801F05AF940F2DC51E9
:10527000884206DA0520FCF715F80120FCF7DEFD70
:10528000A0E1DFF86803007801280BD1DFF85803AC
:105290000078012806D10520FCF704F80120FCF76E
:1052A000CDFD8FE1DFF84803006801F039F9B0F572
:1052B000FA7F0DDADFF83C03006801F031F9B0F550
:1052C000FA7F05DA0120FBF7EDFFFDF717F879E12A
:1052D000C6480078012840F06D81C3480078022854
:1052E00040F068810A20FBF7DDFFFDF79DF869E1DA
:1052F000BF48006801F014F9B0F5FA7F1BDABD4829
:10530000006801F00DF9B0F5FA7F14DAB1480078C1
:105310000A280ADBB4480078012806D10520FBF7EB
:10532000C1FF0120FCF78AFD4CE10120FBF7BAFF29
:10533000FCF7E4FF46E1AF48006801F0F1F8B0F592
:105340007A7F23DAA8480078012806D10520FBF7E8
:10535000A9FF0120FCF772FD17E0A548006801F0E5
:10536000DFF8B0F57A7F0ADADFF80C0700782E282C
:1053700005DB0120FBF796FFFCF7C0FF05E00520E9
:10538000FBF790FF0120FCF759FD1BE198480068EE
:1053900001F0C6F8B0F57A7F20DD9648006801F08C
:1053A000BFF8B0F57A7F19DD90480078012803D165
:1053B0008D480078022804D0DFF8F0030078002838
:1053C00005D10A20FBF76EFFFDF72EF8FAE0052065
:1053D000FBF768FF0120FCF731FDF3E0844800682B
:1053E00001F09EF8B0F57A7F80F2E4808148006891
:1053F00001F096F8B0F57A7F40F3DC800120FBF7EE
:1054000051FFFCF77BFFDDE07148007800282DD1CB
:1054100070480078002829D174480078012803D109
:1054200071480078012807D070480078022809D117
:105430006D480078022805D10620FBF733FFFCF702
:105440004FFEBFE069480078012809D1664800781E
:10545000022805D10A20FBF725FFFCF7E5FFB1E0A4
:105460000120FBF71FFFFCF749FFABE0584800782D
:10547000002800F09F8057480078002800F09A80AC
:10548000DFF8EC050078032812DA54480078DFF8DA
:10549000E4150978401A01280ADB544800780228EC
:1054A00006D10520FBF7FEFE0220FCF7C7FC89E0D1
:1054B0004A480078032812DADFF8B4050078484932
:1054C0000978401A01280ADB47480078012806D1EC
:1054D0000520FBF7E7FE0120FCF7B0FC72E03F4837
:1054E0000078032813DADFF8880500783C4909784A
:1054F000401A15280BDBDFF8FC050078632806D17D
:105500000520FBF7CFFE0120FCF798FC5AE0DFF8FE
:105510006005007803280EDA30480078DFF854156B
:105520000978401A152806DB0520FBF7BBFE022090
:10553000FCF784FC46E02E48006800F0F1FFB0F56F
:105540007A7F31DA2B48006800F0EAFFB0F57A7F05
:105550002ADA2248007803280DDADFF814050078EB
:105560001F490978401A012805DB0120FBF79AFE44
:10557000FCF7C4FE1EE0DFF8F804007803280DDA1B
:1055800016480078DFF8EC140978401A012805DB8A
:105590000120FBF787FEFCF7B1FE0BE00A20FBF7CA
:1055A00081FEFCF741FF0DE00A20FBF77BFEFCF7D4
:1055B0003BFF07E0DFF898050078012802D0FCF7F0
:1055C0009DFEFFE701BD0000CD4FFF1FE14FFF1F14
:1055D000DF4FFF1FE04FFF1FE810FF1F7404FF1F86
:1055E0007504FF1FD74FFF1FE24FFF1FE34FFF1F41
:1055F0009C15FF1F9815FF1F0020C0B23C2829DA18
:10560000D0F13B01DFF8F024C0B202F81010022103
:10561000DFF8E424C0B212EB40025170D0F13B013C
:10562000794AC0B202F810109D21774AC0B212EB3D
:1056300040025170D0F13B01DFF81825C0B202F8EA
:1056400010105021DFF80C25C0B212EB400251704F
:10565000401CD2E70020DFF8001508700020DFF8BA
:10566000181408700020DFF8F41408700020DFF828
:10567000F01408700020DFF8EC1408700020DFF848
:10568000E81408600020DFF8E41408600020DFF868
:10569000E01408700020DFF8B81408700020DFF86C
:1056A000D41408700020DFF8D01408706320DFF8ED
:1056B000C41308706320DFF8B81308706320DFF8A4
:1056C000BC1408706320DFF8B81408706320DFF89A
:1056D000241408706320DFF8AC1408706320DFF82E
:1056E000A81408706320DFF8A41408700020DFF805
:1056F000A01408700020DFF89C1408700020DFF868
:10570000981408700020DFF8941408700020DFF867
:10571000901408700020254908700020DFF88414D8
:1057200008600020DFF8801408600020DFF87C1497
:1057300008700020DFF8781408706320DFF8741414
:1057400008700020DFF8701408600020DFF86C1487
:1057500008600020DFF8681408600020DFF8641497
:1057600008700020DFF8601408700020DFF85C1477
:1057700008700020DFF8581408700020DFF8541477
:1057800008700020DFF8501408700020DFF84C1477
:1057900008700020DFF8481408600020DFF8441487
:1057A00008600020DFF8E81508607047E64FFF1F2B
:1057B00080B500F02DF80520DFF8D8150860DFF877
:1057C000D4050068DFF89413097888420DDADFF811
:1057D0008403DFF8C015096810EB410090F901005F
:1057E0005038DFF8B41508700CE0DFF86803DFF814
:1057F0006C13097810EB410010F9010C5038DFF8F8
:105800009815087001BD00002010FF1F7004FF1FD5
:105810002DE9F04D5FF07E58DFF8CC03006840685A
:1058200000F04EFF04000D000020DFF8C01322003E
:105830002B0000F06DFF04000D000020DFF85C1568
:1058400022002B0000F064FF82468B460020DFF828
:10585000501552465B4601F02DF806000F004046F9
:1058600000F02EFF32003B0000F052FF01F096F8EE
:10587000DFF820150860DFF81C0500680A2803DA45
:105880000A20DFF810150860DFF8080500683828DE
:1058900003DB3720DFF8FC140860BDE8F08D2DE94C
:1058A000F04700265FF0000A5FF0000800200700C4
:1058B000DFF8A8020078874219DADFF8980210EBC7
:1058C000470040789D2804DB781CDFF890120870B0
:1058D0000DE0DFF8800210EB47004078032804DA7F
:1058E000781CDFF87812087001E07F1CE0E70020E8
:1058F0000700DFF86802007887420BDADFF854020D
:1059000010EB47004078503800F0D8FC80190600B2
:105910007F1CEEE7DFF844020078401E96FBF0F0B3
:1059200000F0E2FC824600200700DFF83002007839
:1059300087421DDADFF81C0210EB47004078503830
:1059400001F058F804000D00404600F0B9FE804612
:1059500089462000290022002B0000F0D9FE424693
:105960004B4600F0A7FF01F05DF880467F1CDCE7A6
:10597000DFF8E8010078401E00F0B6FC0100404668
:1059800000F0DCFC80464046DFF8181400F09AFC7A
:1059900002D8DFF8140480464046DFF8101400F007
:1059A0007BFC03D20120DFF808140870BDE8F08703
:1059B000DFF800044078DFF840114978401A4728A2
:1059C00013DADFF8F00340789D280ED1DFF8A80144
:1059D0000078062809DBDFF8C00390F900004D28A5
:1059E00003DB0120DFF8D0130870DFF8C80340782C
:1059F000DFF804114978401A472814DADFF8F80074
:105A0000407802280FD1DFF86C01007806280ADB05
:105A1000DFF8840390F9000010F14C0F03DA022044
:105A2000DFF894130870DFF88C034078DFF8C810B3
:105A30004978401A642803DB0020DFF87C130870E3
:105A4000DFF8740390F90000012804D15020DFF83A
:105A5000481308700AE0DFF8600390F9000002289C
:105A600004D17FF04F00DFF830130870704700005A
:105A70007604FF1F7704FF1FD84FFF1F40B2012895
:105A80001BD1DFF88C1691F90010002915D1DFF831
:105A9000841691F9001001290FD10221DFF8742634
:105AA00011700021DFF8842711600121DFF86026E2
:105AB00011700121DFF860261170DFF87017096896
:105AC0001A2915DBDFF8501691F9001001290FD1C2
:105AD0000021DFF83C2611700321DFF83826117011
:105AE0000021DFF8342611700021DFF84027116013
:105AF000704700007804FF1FE810FF1FF0B49F22DA
:105B00000023002400250026144F3F78BE421BDAF4
:105B1000104F17EB46077F78974206DADFF81877C1
:105B200017EB46077F783A0034000A4F17EB460719
:105B30007F78BB4206DADFF8007717EB46077F78FD
:105B40003B003500761CDFE704600D60F0BC704759
:105B5000E54FFF1FB011FF1FD74FFF1FD94FFF1F8A
:105B6000E24FFF1FE34FFF1F9815FF1F9C15FF1FFC
:105B7000E44FFF1FDF4FFF1FE04FFF1F7504FF1FA4
:105B80007404FF1F7904FF1F7A04FF1F7B04FF1FAB
:105B9000DB4FFF1FDC4FFF1FDD4FFF1FDE4FFF1FDF
:105BA000E14FFF1FA015FF1FA415FF1FEB4FFF1FA5
:105BB000EC4FFF1F7304FF1FAC15FF1FA815FF1F3D
:105BC000B815FF1FDA4FFF1FF24FFF1FF34FFF1FE4
:105BD000F44FFF1FF54FFF1FF64FFF1FF74FFF1F3B
:105BE000BC15FF1FC015FF1FBC04FF1F000059405C
:105BF00010B400210022002300200100DFF83C0641
:105C00000078801F81427DDADFF8340610EB410016
:105C10004079DFF82C4614EB41046478A04231D27D
:105C2000DFF81C0610EB4100C079DFF8144614EBD6
:105C30004104E478A04225D2DFF8040610EB4100CD
:105C4000407ADFF8FC4514EB41046479A04219D294
:105C5000DFF8EC0510EB4100C07ADFF8E44514EB07
:105C60004104E479A0420DD2DFF8D40510EB4100E5
:105C7000407BDFF8CC4514EB4104647AA04201D2AA
:105C800001200200DFF8B80510EB41004078DFF892
:105C9000B04514EB41046479A04231D2DFF8A0058D
:105CA00010EB4100C078DFF8984514EB4104E4792B
:105CB000A04225D2DFF8880510EB41004079DFF8DB
:105CC000804514EB4104647AA04219D2DFF87005D4
:105CD00010EB4100C079DFF8684514EB4104E47A29
:105CE000A0420DD2DFF8580510EB4100407ADFF8F2
:105CF000504514EB4104647BA04201D20120030013
:105D0000891C7BE7DFF83C050078DFF83C45247808
:105D1000001B2E2808DBDFF8F4030078DFF82445A9
:105D20002478001B05281EDADFF820050078DFF84C
:105D300020452478001B2E2808DBDFF818050078A2
:105D4000DFF808452478001B05280CDA52B25BB254
:105D50009A420AD1DFF8EC040078DFF8EC442478AA
:105D6000001B2E2801DB042010E052B25BB29A42E5
:105D700001D103200AE052B2012A01D1022005E03C
:105D80005BB2012B01D1012000E0002010BC704764
:105D9000C415FF1F1010FF1FD64FFF1F0080564075
:105DA000000023C001001F4300001F430100704199
:105DB000EE4FFF1F2010FF1FD54FFF1F10B4002113
:105DC0000022002300200100DFF888040078801FF3
:105DD000814280F21281DFF8580410EB41004079D3
:105DE000DFF84C4414EB41046478A04237D2DFF86A
:105DF000400410EB4100C079DFF8344414EB410457
:105E0000E478A0422BD2DFF8280410EB4100407A5E
:105E1000DFF81C4414EB41046479A0421FD2DFF880
:105E2000100410EB4100C07ADFF8044414EB410485
:105E3000E479A04213D2DFF8F80310EB4100407B75
:105E4000DFF8EC4314EB4104647AA04207D2002A45
:105E500001D1012002000120DFF8FC432070DFF8AF
:105E6000D00310EB41004078DFF8C44314EB410449
:105E70006479A04237D2DFF8B80310EB4100C07854
:105E8000DFF8AC4314EB4104E479A0422BD2DFF8F5
